{
  "_format": "hh-sol-artifact-1",
  "contractName": "ERC721Ownable",
  "sourceName": "contracts/preset/ERC721Ownable.sol",
  "abi": [
    {
      "inputs": [
        {
          "internalType": "string",
          "name": "name",
          "type": "string"
        },
        {
          "internalType": "string",
          "name": "symbol",
          "type": "string"
        }
      ],
      "stateMutability": "nonpayable",
      "type": "constructor"
    },
    {
      "inputs": [
        {
          "internalType": "address",
          "name": "sender",
          "type": "address"
        },
        {
          "internalType": "uint256",
          "name": "tokenId",
          "type": "uint256"
        },
        {
          "internalType": "address",
          "name": "owner",
          "type": "address"
        }
      ],
      "name": "ERC721IncorrectOwner",
      "type": "error"
    },
    {
      "inputs": [
        {
          "internalType": "address",
          "name": "operator",
          "type": "address"
        },
        {
          "internalType": "uint256",
          "name": "tokenId",
          "type": "uint256"
        }
      ],
      "name": "ERC721InsufficientApproval",
      "type": "error"
    },
    {
      "inputs": [
        {
          "internalType": "address",
          "name": "approver",
          "type": "address"
        }
      ],
      "name": "ERC721InvalidApprover",
      "type": "error"
    },
    {
      "inputs": [
        {
          "internalType": "address",
          "name": "operator",
          "type": "address"
        }
      ],
      "name": "ERC721InvalidOperator",
      "type": "error"
    },
    {
      "inputs": [
        {
          "internalType": "address",
          "name": "owner",
          "type": "address"
        }
      ],
      "name": "ERC721InvalidOwner",
      "type": "error"
    },
    {
      "inputs": [
        {
          "internalType": "address",
          "name": "receiver",
          "type": "address"
        }
      ],
      "name": "ERC721InvalidReceiver",
      "type": "error"
    },
    {
      "inputs": [
        {
          "internalType": "address",
          "name": "sender",
          "type": "address"
        }
      ],
      "name": "ERC721InvalidSender",
      "type": "error"
    },
    {
      "inputs": [
        {
          "internalType": "uint256",
          "name": "tokenId",
          "type": "uint256"
        }
      ],
      "name": "ERC721NonexistentToken",
      "type": "error"
    },
    {
      "inputs": [
        {
          "internalType": "address",
          "name": "owner",
          "type": "address"
        }
      ],
      "name": "OwnableInvalidOwner",
      "type": "error"
    },
    {
      "inputs": [
        {
          "internalType": "address",
          "name": "account",
          "type": "address"
        }
      ],
      "name": "OwnableUnauthorizedAccount",
      "type": "error"
    },
    {
      "anonymous": false,
      "inputs": [
        {
          "indexed": true,
          "internalType": "address",
          "name": "owner",
          "type": "address"
        },
        {
          "indexed": true,
          "internalType": "address",
          "name": "approved",
          "type": "address"
        },
        {
          "indexed": true,
          "internalType": "uint256",
          "name": "tokenId",
          "type": "uint256"
        }
      ],
      "name": "Approval",
      "type": "event"
    },
    {
      "anonymous": false,
      "inputs": [
        {
          "indexed": true,
          "internalType": "address",
          "name": "owner",
          "type": "address"
        },
        {
          "indexed": true,
          "internalType": "address",
          "name": "operator",
          "type": "address"
        },
        {
          "indexed": false,
          "internalType": "bool",
          "name": "approved",
          "type": "bool"
        }
      ],
      "name": "ApprovalForAll",
      "type": "event"
    },
    {
      "anonymous": false,
      "inputs": [
        {
          "indexed": true,
          "internalType": "address",
          "name": "previousOwner",
          "type": "address"
        },
        {
          "indexed": true,
          "internalType": "address",
          "name": "newOwner",
          "type": "address"
        }
      ],
      "name": "OwnershipTransferred",
      "type": "event"
    },
    {
      "anonymous": false,
      "inputs": [
        {
          "indexed": true,
          "internalType": "address",
          "name": "from",
          "type": "address"
        },
        {
          "indexed": true,
          "internalType": "address",
          "name": "to",
          "type": "address"
        },
        {
          "indexed": true,
          "internalType": "uint256",
          "name": "tokenId",
          "type": "uint256"
        }
      ],
      "name": "Transfer",
      "type": "event"
    },
    {
      "inputs": [
        {
          "internalType": "address",
          "name": "to",
          "type": "address"
        },
        {
          "internalType": "uint256",
          "name": "tokenId",
          "type": "uint256"
        }
      ],
      "name": "approve",
      "outputs": [],
      "stateMutability": "nonpayable",
      "type": "function"
    },
    {
      "inputs": [
        {
          "internalType": "address",
          "name": "owner",
          "type": "address"
        }
      ],
      "name": "balanceOf",
      "outputs": [
        {
          "internalType": "uint256",
          "name": "",
          "type": "uint256"
        }
      ],
      "stateMutability": "view",
      "type": "function"
    },
    {
      "inputs": [
        {
          "internalType": "uint256",
          "name": "tokenId",
          "type": "uint256"
        }
      ],
      "name": "burn",
      "outputs": [],
      "stateMutability": "nonpayable",
      "type": "function"
    },
    {
      "inputs": [
        {
          "internalType": "uint256",
          "name": "tokenId",
          "type": "uint256"
        }
      ],
      "name": "getApproved",
      "outputs": [
        {
          "internalType": "address",
          "name": "",
          "type": "address"
        }
      ],
      "stateMutability": "view",
      "type": "function"
    },
    {
      "inputs": [
        {
          "internalType": "address",
          "name": "owner",
          "type": "address"
        },
        {
          "internalType": "address",
          "name": "operator",
          "type": "address"
        }
      ],
      "name": "isApprovedForAll",
      "outputs": [
        {
          "internalType": "bool",
          "name": "",
          "type": "bool"
        }
      ],
      "stateMutability": "view",
      "type": "function"
    },
    {
      "inputs": [
        {
          "internalType": "address",
          "name": "to",
          "type": "address"
        },
        {
          "internalType": "uint256",
          "name": "tokenId",
          "type": "uint256"
        }
      ],
      "name": "mint",
      "outputs": [],
      "stateMutability": "nonpayable",
      "type": "function"
    },
    {
      "inputs": [],
      "name": "name",
      "outputs": [
        {
          "internalType": "string",
          "name": "",
          "type": "string"
        }
      ],
      "stateMutability": "view",
      "type": "function"
    },
    {
      "inputs": [],
      "name": "owner",
      "outputs": [
        {
          "internalType": "address",
          "name": "",
          "type": "address"
        }
      ],
      "stateMutability": "view",
      "type": "function"
    },
    {
      "inputs": [
        {
          "internalType": "uint256",
          "name": "tokenId",
          "type": "uint256"
        }
      ],
      "name": "ownerOf",
      "outputs": [
        {
          "internalType": "address",
          "name": "",
          "type": "address"
        }
      ],
      "stateMutability": "view",
      "type": "function"
    },
    {
      "inputs": [],
      "name": "renounceOwnership",
      "outputs": [],
      "stateMutability": "nonpayable",
      "type": "function"
    },
    {
      "inputs": [
        {
          "internalType": "address",
          "name": "to",
          "type": "address"
        },
        {
          "internalType": "uint256",
          "name": "tokenId",
          "type": "uint256"
        }
      ],
      "name": "safeMint",
      "outputs": [],
      "stateMutability": "nonpayable",
      "type": "function"
    },
    {
      "inputs": [
        {
          "internalType": "address",
          "name": "from",
          "type": "address"
        },
        {
          "internalType": "address",
          "name": "to",
          "type": "address"
        },
        {
          "internalType": "uint256",
          "name": "tokenId",
          "type": "uint256"
        }
      ],
      "name": "safeTransferFrom",
      "outputs": [],
      "stateMutability": "nonpayable",
      "type": "function"
    },
    {
      "inputs": [
        {
          "internalType": "address",
          "name": "from",
          "type": "address"
        },
        {
          "internalType": "address",
          "name": "to",
          "type": "address"
        },
        {
          "internalType": "uint256",
          "name": "tokenId",
          "type": "uint256"
        },
        {
          "internalType": "bytes",
          "name": "data",
          "type": "bytes"
        }
      ],
      "name": "safeTransferFrom",
      "outputs": [],
      "stateMutability": "nonpayable",
      "type": "function"
    },
    {
      "inputs": [
        {
          "internalType": "address",
          "name": "operator",
          "type": "address"
        },
        {
          "internalType": "bool",
          "name": "approved",
          "type": "bool"
        }
      ],
      "name": "setApprovalForAll",
      "outputs": [],
      "stateMutability": "nonpayable",
      "type": "function"
    },
    {
      "inputs": [
        {
          "internalType": "bytes4",
          "name": "interfaceId",
          "type": "bytes4"
        }
      ],
      "name": "supportsInterface",
      "outputs": [
        {
          "internalType": "bool",
          "name": "",
          "type": "bool"
        }
      ],
      "stateMutability": "view",
      "type": "function"
    },
    {
      "inputs": [],
      "name": "symbol",
      "outputs": [
        {
          "internalType": "string",
          "name": "",
          "type": "string"
        }
      ],
      "stateMutability": "view",
      "type": "function"
    },
    {
      "inputs": [
        {
          "internalType": "uint256",
          "name": "tokenId",
          "type": "uint256"
        }
      ],
      "name": "tokenURI",
      "outputs": [
        {
          "internalType": "string",
          "name": "",
          "type": "string"
        }
      ],
      "stateMutability": "view",
      "type": "function"
    },
    {
      "inputs": [
        {
          "internalType": "address",
          "name": "from",
          "type": "address"
        },
        {
          "internalType": "address",
          "name": "to",
          "type": "address"
        },
        {
          "internalType": "uint256",
          "name": "tokenId",
          "type": "uint256"
        }
      ],
      "name": "transferFrom",
      "outputs": [],
      "stateMutability": "nonpayable",
      "type": "function"
    },
    {
      "inputs": [
        {
          "internalType": "address",
          "name": "newOwner",
          "type": "address"
        }
      ],
      "name": "transferOwnership",
      "outputs": [],
      "stateMutability": "nonpayable",
      "type": "function"
    }
  ],
  "bytecode": "0x60806040523480156200001157600080fd5b506040516200165b3803806200165b8339810160408190526200003491620001a6565b818133806200005d57604051631e4fbdf760e01b81526000600482015260240160405180910390fd5b620000688162000091565b5060016200007783826200029f565b5060026200008682826200029f565b50505050506200036b565b600080546001600160a01b038381166001600160a01b0319831681178455604051919092169283917f8be0079c531659141344cd1fd0a4f28419497f9722a3daafe3b4186f6b6457e09190a35050565b634e487b7160e01b600052604160045260246000fd5b600082601f8301126200010957600080fd5b81516001600160401b0380821115620001265762000126620000e1565b604051601f8301601f19908116603f01168101908282118183101715620001515762000151620000e1565b816040528381526020925086838588010111156200016e57600080fd5b600091505b8382101562000192578582018301518183018401529082019062000173565b600093810190920192909252949350505050565b60008060408385031215620001ba57600080fd5b82516001600160401b0380821115620001d257600080fd5b620001e086838701620000f7565b93506020850151915080821115620001f757600080fd5b506200020685828601620000f7565b9150509250929050565b600181811c908216806200022557607f821691505b6020821081036200024657634e487b7160e01b600052602260045260246000fd5b50919050565b601f8211156200029a57600081815260208120601f850160051c81016020861015620002755750805b601f850160051c820191505b81811015620002965782815560010162000281565b5050505b505050565b81516001600160401b03811115620002bb57620002bb620000e1565b620002d381620002cc845462000210565b846200024c565b602080601f8311600181146200030b5760008415620002f25750858301515b600019600386901b1c1916600185901b17855562000296565b600085815260208120601f198616915b828110156200033c578886015182559484019460019091019084016200031b565b50858210156200035b5787850151600019600388901b60f8161c191681555b5050505050600190811b01905550565b6112e0806200037b6000396000f3fe608060405234801561001057600080fd5b50600436106101515760003560e01c806370a08231116100cd578063a22cb46511610081578063c87b56dd11610066578063c87b56dd146102ad578063e985e9c5146102c0578063f2fde38b146102fc57600080fd5b8063a22cb46514610287578063b88d4fde1461029a57600080fd5b80638da5cb5b116100b25780638da5cb5b1461025b57806395d89b411461026c578063a14481941461027457600080fd5b806370a0823114610232578063715018a61461025357600080fd5b806323b872dd1161012457806342842e0e1161010957806342842e0e146101f957806342966c681461020c5780636352211e1461021f57600080fd5b806323b872dd146101d357806340c10f19146101e657600080fd5b806301ffc9a71461015657806306fdde031461017e578063081812fc14610193578063095ea7b3146101be575b600080fd5b610169610164366004610f51565b61030f565b60405190151581526020015b60405180910390f35b6101866103ac565b6040516101759190610fbe565b6101a66101a1366004610fd1565b61043e565b6040516001600160a01b039091168152602001610175565b6101d16101cc366004611006565b610467565b005b6101d16101e1366004611030565b610476565b6101d16101f4366004611006565b61051f565b6101d1610207366004611030565b610531565b6101d161021a366004610fd1565b610551565b6101a661022d366004610fd1565b61055d565b61024561024036600461106c565b610568565b604051908152602001610175565b6101d16105c9565b6000546001600160a01b03166101a6565b6101866105dd565b6101d1610282366004611006565b6105ec565b6101d1610295366004611087565b6105fe565b6101d16102a83660046110d9565b610609565b6101866102bb366004610fd1565b610620565b6101696102ce3660046111b5565b6001600160a01b03918216600090815260066020908152604080832093909416825291909152205460ff1690565b6101d161030a36600461106c565b610695565b60006001600160e01b031982167f80ac58cd00000000000000000000000000000000000000000000000000000000148061037257506001600160e01b031982167f5b5e139f00000000000000000000000000000000000000000000000000000000145b806103a657507f01ffc9a7000000000000000000000000000000000000000000000000000000006001600160e01b03198316145b92915050565b6060600180546103bb906111e8565b80601f01602080910402602001604051908101604052809291908181526020018280546103e7906111e8565b80156104345780601f1061040957610100808354040283529160200191610434565b820191906000526020600020905b81548152906001019060200180831161041757829003601f168201915b5050505050905090565b6000610449826106ec565b506000828152600560205260409020546001600160a01b03166103a6565b610472828233610725565b5050565b6001600160a01b0382166104a557604051633250574960e11b8152600060048201526024015b60405180910390fd5b60006104b2838333610732565b9050836001600160a01b0316816001600160a01b031614610519576040517f64283d7b0000000000000000000000000000000000000000000000000000000081526001600160a01b038086166004830152602482018490528216604482015260640161049c565b50505050565b610527610838565b610472828261087e565b61054c83838360405180602001604052806000815250610609565b505050565b61047260008233610732565b60006103a6826106ec565b60006001600160a01b0382166105ad576040517f89c62b640000000000000000000000000000000000000000000000000000000081526000600482015260240161049c565b506001600160a01b031660009081526004602052604090205490565b6105d1610838565b6105db60006108fc565b565b6060600280546103bb906111e8565b6105f4610838565b6104728282610959565b610472338383610973565b610614848484610476565b61051984848484610a2b565b606061062b826106ec565b50600061064360408051602081019091526000815290565b90506000815111610663576040518060200160405280600081525061068e565b8061066d84610b54565b60405160200161067e929190611222565b6040516020818303038152906040525b9392505050565b61069d610838565b6001600160a01b0381166106e0576040517f1e4fbdf70000000000000000000000000000000000000000000000000000000081526000600482015260240161049c565b6106e9816108fc565b50565b6000818152600360205260408120546001600160a01b0316806103a657604051637e27328960e01b81526004810184905260240161049c565b61054c8383836001610bf4565b6000828152600360205260408120546001600160a01b039081169083161561075f5761075f818486610d3f565b6001600160a01b0381161561079d5761077c600085600080610bf4565b6001600160a01b038116600090815260046020526040902080546000190190555b6001600160a01b038516156107cc576001600160a01b0385166000908152600460205260409020805460010190555b600084815260036020526040808220805473ffffffffffffffffffffffffffffffffffffffff19166001600160a01b0389811691821790925591518793918516917fddf252ad1be2c89b69c2b068fc378daa952ba7f163c4a11628f55a4df523b3ef91a4949350505050565b6000546001600160a01b031633146105db576040517f118cdaa700000000000000000000000000000000000000000000000000000000815233600482015260240161049c565b6001600160a01b0382166108a857604051633250574960e11b81526000600482015260240161049c565b60006108b683836000610732565b90506001600160a01b0381161561054c576040517f73c6ac6e0000000000000000000000000000000000000000000000000000000081526000600482015260240161049c565b600080546001600160a01b0383811673ffffffffffffffffffffffffffffffffffffffff19831681178455604051919092169283917f8be0079c531659141344cd1fd0a4f28419497f9722a3daafe3b4186f6b6457e09190a35050565b610472828260405180602001604052806000815250610dbc565b6001600160a01b0382166109be576040517f5b08ba180000000000000000000000000000000000000000000000000000000081526001600160a01b038316600482015260240161049c565b6001600160a01b03838116600081815260066020908152604080832094871680845294825291829020805460ff191686151590811790915591519182527f17307eab39ab6107e8899845ad3d59bd9653f200f220920489ca2b5937696c31910160405180910390a3505050565b6001600160a01b0383163b1561051957604051630a85bd0160e11b81526001600160a01b0384169063150b7a0290610a6d903390889087908790600401611251565b6020604051808303816000875af1925050508015610aa8575060408051601f3d908101601f19168201909252610aa59181019061128d565b60015b610b11573d808015610ad6576040519150601f19603f3d011682016040523d82523d6000602084013e610adb565b606091505b508051600003610b0957604051633250574960e11b81526001600160a01b038516600482015260240161049c565b805181602001fd5b6001600160e01b03198116630a85bd0160e11b14610b4d57604051633250574960e11b81526001600160a01b038516600482015260240161049c565b5050505050565b60606000610b6183610dd3565b600101905060008167ffffffffffffffff811115610b8157610b816110c3565b6040519080825280601f01601f191660200182016040528015610bab576020820181803683370190505b5090508181016020015b600019017f3031323334353637383961626364656600000000000000000000000000000000600a86061a8153600a8504945084610bb557509392505050565b8080610c0857506001600160a01b03821615155b15610d02576000610c18846106ec565b90506001600160a01b03831615801590610c445750826001600160a01b0316816001600160a01b031614155b8015610c7657506001600160a01b0380821660009081526006602090815260408083209387168352929052205460ff16155b15610cb8576040517fa9fbf51f0000000000000000000000000000000000000000000000000000000081526001600160a01b038416600482015260240161049c565b8115610d005783856001600160a01b0316826001600160a01b03167f8c5be1e5ebec7d5bd14f71427d1e84f3dd0314c0f7b2291e5b200ac8c7c3b92560405160405180910390a45b505b50506000908152600560205260409020805473ffffffffffffffffffffffffffffffffffffffff19166001600160a01b0392909216919091179055565b610d4a838383610eb5565b61054c576001600160a01b038316610d7857604051637e27328960e01b81526004810182905260240161049c565b6040517f177e802f0000000000000000000000000000000000000000000000000000000081526001600160a01b03831660048201526024810182905260440161049c565b610dc6838361087e565b61054c6000848484610a2b565b6000807a184f03e93ff9f4daa797ed6e38ed64bf6a1f0100000000000000008310610e1c577a184f03e93ff9f4daa797ed6e38ed64bf6a1f010000000000000000830492506040015b6d04ee2d6d415b85acef81000000008310610e48576d04ee2d6d415b85acef8100000000830492506020015b662386f26fc100008310610e6657662386f26fc10000830492506010015b6305f5e1008310610e7e576305f5e100830492506008015b6127108310610e9257612710830492506004015b60648310610ea4576064830492506002015b600a83106103a65760010192915050565b60006001600160a01b03831615801590610f335750826001600160a01b0316846001600160a01b03161480610f0f57506001600160a01b0380851660009081526006602090815260408083209387168352929052205460ff165b80610f3357506000828152600560205260409020546001600160a01b038481169116145b949350505050565b6001600160e01b0319811681146106e957600080fd5b600060208284031215610f6357600080fd5b813561068e81610f3b565b60005b83811015610f89578181015183820152602001610f71565b50506000910152565b60008151808452610faa816020860160208601610f6e565b601f01601f19169290920160200192915050565b60208152600061068e6020830184610f92565b600060208284031215610fe357600080fd5b5035919050565b80356001600160a01b038116811461100157600080fd5b919050565b6000806040838503121561101957600080fd5b61102283610fea565b946020939093013593505050565b60008060006060848603121561104557600080fd5b61104e84610fea565b925061105c60208501610fea565b9150604084013590509250925092565b60006020828403121561107e57600080fd5b61068e82610fea565b6000806040838503121561109a57600080fd5b6110a383610fea565b9150602083013580151581146110b857600080fd5b809150509250929050565b634e487b7160e01b600052604160045260246000fd5b600080600080608085870312156110ef57600080fd5b6110f885610fea565b935061110660208601610fea565b925060408501359150606085013567ffffffffffffffff8082111561112a57600080fd5b818701915087601f83011261113e57600080fd5b813581811115611150576111506110c3565b604051601f8201601f19908116603f01168101908382118183101715611178576111786110c3565b816040528281528a602084870101111561119157600080fd5b82602086016020830137600060208483010152809550505050505092959194509250565b600080604083850312156111c857600080fd5b6111d183610fea565b91506111df60208401610fea565b90509250929050565b600181811c908216806111fc57607f821691505b60208210810361121c57634e487b7160e01b600052602260045260246000fd5b50919050565b60008351611234818460208801610f6e565b835190830190611248818360208801610f6e565b01949350505050565b60006001600160a01b038087168352808616602084015250836040830152608060608301526112836080830184610f92565b9695505050505050565b60006020828403121561129f57600080fd5b815161068e81610f3b56fea26469706673582212208726426fb55cb46063b7455985fc12bf86f44443957a850290af76c8d3489fd764736f6c63430008140033",
  "linkReferences": {},
  "deployedLinkReferences": {}
}